:020000040000FA
:060000000A128A11F02F24
:100EDE00883413344130831203139F00C0308316BD
:100EEE0003139F000800D030831603139200831261
:100EFE000313971517152D30920083160313071140
:100F0E0008007108F3007008F2000310F30CF20CE5
:100F1E000310F30CF20C7208831203139500700881
:100F2E000339F20004300310F20DFF3E031D9A2F19
:100F3E001708CF397204970008000A128A117A270F
:100F4E000A128A110A128A1171270A128A110330A3
:100F5E000A128A11C5270A128A117108F600700842
:100F6E00F5007608F1007508F0000A128A1188273C
:100F7E000A128A11AE2F0A128A110028F400C53007
:100F8E00F2007208831203139F057408F2000230F8
:100F9E000310F20DFF3E031DCF2F0310720DF30051
:100FAE0073089F040D30F300FB30F200F20BDD2FBF
:100FBE00F30BDD2FE22F831203131F151F19E82FDA
:100FCE00E92FE52F1E08F100831603131E08F0000B
:100FDE0008000A128A116F270A128A11F7000A12E4
:100FEE008A1170270A128A11F80083010A128A11D7
:020FFE00A42F1E
:02400E00B23FBF
:00000001FF
