:020000040000FA
:060000000A128A11122809
:10000800FE00030E83120313A3000408A4000A08C9
:10001800A5007F08A6000A128A118F2B0A128A11DE
:10002800152883120313BA01BB01BC01BD01BE012F
:10003800BF0183010A128A1121288316031388013C
:10004800061481018B170B170B160A128A118C22C2
:100058000A128A110A3083120313B0000030B1006B
:10006800E830A7000330A8003B08AA003A08A90016
:100078000A128A1106210A128A1183120313280808
:10008800B3002708B2000A128A1131220A128A1113
:10009800831203133008B7003708BF000A30B000D6
:1000A8000030B1006430A7000030A8003B08AA0067
:1000B8003A08A9000A128A1106210A128A11831223
:1000C80003132808B3002708B2000A128A11312244
:1000D8000A128A11831203133008B7003708BE00CA
:1000E8000A30B0000030B1000A30A7000030A80084
:1000F8003B08AA003A08A9000A128A1106210A1226
:100108008A11831203132808B3002708B2000A12C1
:100118008A1131220A128A11831203133008B70098
:100128003708BD000A30B0000030B1003B08B3000A
:100138003A08B2000A128A1131220A128A1183126D
:1001480003133008B7003708BC00AB01AB0A023014
:100158000A128A11E5220A128A1101300A128A113A
:1001680040240A128A1183120313AB01AB0A01302F
:100178000A128A11E5220A128A1132300A128A11E9
:1001880040240A128A11831203133F08303E0A12D0
:100198008A116F210A128A11831203133E08303E16
:1001A8000A128A116F210A128A11831203133D0859
:1001B800303E0A128A116F210A128A118312031320
:1001C8003C08303E0A128A116F210A128A110D303A
:1001D80083120313B900AF30B800B530B700B70BBE
:1001E800F328B80BF328B90BF328FA280130831247
:1001F8000313BA070318BB0A0030BB072E280A12DC
:100208008A11122883120313AD01A81F0C290D2986
:100218001429A709A809A70A0319A80AAD01AD0A54
:10022800AA1F172918292129A909AA09A90A0319FE
:10023800AA0A0130AB002B08AD06AE01AF012708B2
:1002480028040319282929296029AC01AC0A37296F
:1002580001300310A70DA80DFF3E031D2D29013005
:10026800AB002B08AC07A81F3A293B292C290130E1
:100278000310AE0DAF0DFF3E031D3C2928082A02CE
:10028800031D482927082902031C4B294C295329F7
:100298002708A9022808031CAA03AA022E14013061
:1002A8000310A80CA70CFF3E031D54290130AC0213
:1002B800031D5F2960293B292D0803196429652935
:1002C8006A29AE09AF09AE0A0319AF0A2F08A800B8
:1002D8002E08A700080083120313AB002B080F3960
:1002E800A8002808A9002B08F039A8002808AA00A7
:1002F80008152A08A80004300310A80CFF3E031DA7
:10030800802928080A128A11B0240A128A11831235
:10031800031388153330AC008230AD000000FF3085
:1003280083120313AC070318AD0AFF30AD072D087D
:10033800803AFF0080307F02031DA42901302C027F
:10034800031CA729A82992298312031388112908B5
:100358000A128A11B0240A128A118312031388150B
:100368003330AE008230AF000000FF308312031339
:10037800AE070318AF0AFF30AF072F08803AFF0017
:1003880080307F02031DCA2901302E02031CCD29AB
:10039800CE29B8298312031388110800F4007408C1
:1003A8000F39F1007108F2007408F039F100710892
:1003B800F3008312031308157308F10004300310C7
:1003C800F10CFF3E031DE32971080A128A118E24DD
:1003D8000A128A118312031388153330F50082300C
:1003E800F6000000FF30F5070318F60AFF30F6079D
:1003F8007608803AFF0080307F02031D052A01300D
:100408007502031C082A092AF52983120313881187
:1004180072080A128A118E240A128A11831203138F
:1004280088153330F7008230F8000000FF30F707F6
:100438000318F80AFF30F8077808803AFF00803080
:100448007F02031D292A01307702031C2C2A2D2A3A
:10045800192A831203138811080083120313B601A3
:10046800B31F372A382A3F2AB209B309B20A031937
:10047800B30AB601B60AB11F422A432A482AB0096C
:10048800B109B00A0319B10A3008310403194D2A19
:100498004E2A7D2AB501B50A5C2A01300310B00D39
:1004A800B10DFF3E031D522A0130B4003408B507D0
:1004B800B11F5F2A602A512A31083302031D662AB8
:1004C80030083202031C692A6A2A702A3008B202EC
:1004D8003108031CB303B30201300310B10CB00C94
:1004E800FF3E031D712A0130B502031D7C2A7D2AB7
:1004F800602A36080319812A822A872AB209B30991
:10050800B20A0319B30A3308B1003208B000080070
:1005180000300A128A11B0240A128A1103300A1212
:100528008A11D0240A128A11213083120313AC00D5
:100538007530AB00AB0B9E2AAC0B9E2AA32A033066
:100548000A128A11D0240A128A114830831203131E
:10055800AC006B30AB00AB0BAF2AAC0BAF2AB42AA4
:1005680003300A128A11D0240A128A1102300A12A0
:100578008A11D0240A128A1102300A128A11D02450
:100588000A128A1108300A128A11D0240A128A1112
:1005980000300A128A11D0240A128A110C300A1269
:1005A8008A11D0240A128A1100300A128A11D02422
:1005B8000A128A1106300A128A11D0240A128A11E4
:1005C800080083120313AE002E03031DEC2AED2A44
:1005D800122B2B087F3EAC002C08B1003108AC0070
:1005E80004300310AC0CFF3E031DF52A2C08AD00A7
:1005F8002D08AF0031080F39AC002C08B0002F08C7
:100608000A128A11D0240A128A118312031330089D
:100618000A128A11D0240A128A113C2B02302E06A3
:10062800031D172B182B3C2B2B08BF3EAC002C08A6
:10063800B1003108AC0004300310AC0CFF3E031DC0
:10064800202B2C08AD002D08AF0031080F39AC0065
:100658002C08B0002F080A128A11D0240A128A1115
:100668008312031330080A128A11D0240A128A113D
:100678000800F7007703031D422B432B662B7408F1
:100688007F3EF5007508FA007A08F500043003107B
:10069800F50CFF3E031D4B2B7508F6007608F80095
:1006A8007A080F39F5007508F90078080A128A11D6
:1006B800EC240A128A1179080A128A11EC240A1207
:1006C8008A118E2B02307706031D6B2B6C2B8E2B19
:1006D8007408BF3EF5007508FA007A08F500043082
:1006E8000310F50CFF3E031D742B7508F600760801
:1006F800F8007A080F39F5007508F90078080A1229
:100708008A11EC240A128A1179080A128A11EC2437
:100718000A128A1108008B1C922B932BC82B0A12E1
:100728008A1106250A128A11F401F40A01300A1204
:100738008A113D230A128A1122300A128A11692469
:100748000A128A11F401F40A02300A128A113D23AE
:100758000A128A1112300A128A1169240A128A119D
:100768008B107F3083120313A200D430A1003130E4
:10077800A000A00BBD2BA10BBD2BA20BBD2B0A12F9
:100788008A1106250A128A11831203132608FF000C
:1007980025088A0024088400230E8300FE0E7E0E9E
:0207A800090046
:1008000004308A000408840A8207003449346E34B4
:10081000733469346434653420344D34613469345C
:100820006E3420344C346F346F34703400345334AD
:100830006534723476346934633465342034523428
:100840006F347534743469346E346534003445342F
:100850006E34743465347234203449346E347434F4
:1008600065347234723475347034743400344E34F8
:1008700075346D346234653472343A342034003463
:1008800083120313B200B001B1015B2C30083207B0
:1008900084000A128A1100240A128A110A128A118B
:1008A0006F210A128A11013083120313B007031853
:1008B000B10A0030B1073008320784000A128A11E9
:1008C00000240A128A11003A031D672C682C462C5A
:1008D0000800F900FA01FB01802C7A0879078400EE
:1008E0000A128A1100240A128A110A128A11D221CC
:1008F0000A128A110130FA070318FB0A0030FB07BD
:100900007A08790784000A128A1100240A128A11CF
:10091000003A031D8C2C8D2C6D2C0800F000701CEF
:10092000922C932C972C8312031308169A2C831263
:1009300003130812F01C9D2C9E2CA02C8816A12CB1
:100940008812701DA42CA52CA72C0817A82C0813FE
:10095000F01DAB2CAC2CAE2C8817AF2C88130800E4
:1009600083120313A700271CB62CB72CB92C08162A
:10097000BA2C0812A71CBD2CBE2CC02C8816C12C6A
:100980008812271DC42CC52CC72C0817C82C081387
:10099000A71DCB2CCC2CCE2C8817CF2C881308006D
:1009A00083120313AA0008112A080A128A11B0241C
:1009B0000A128A118312031388151A308312031343
:1009C000A900F730A800A80BE32CA90BE32CE82C16
:1009D0008312031388110800F30083120313081114
:1009E00073080A128A118E240A128A1183120313C1
:1009F00088151A30F200F830F100F10BFD2CF20BE3
:100A0000FD2C0000831203138811080000300A1225
:100A10008A11EC240A128A1101300A128A11EC247C
:060A20000A128A11080011
:02400E00723FFF
:00000001FF
