:020000040000FA
:060000000A128A110C280F
:10000800FE00030EF1000A08F2000A128A11022CFF
:100018000A128A110F288313203084003D300A12F7
:100028008A1170240A128A1183010A128A11062978
:1000380083120313CE004430C6004608C900EF28D7
:1000480025304F06031929282A2836284F08C600C4
:100058004E0884004608831380000130C600460815
:10006800CE07EF28CA010130C307FF3043078400D9
:100078000A128A11B6230A128A11CF00C600C701D4
:100088004708003A03194928EF284608003A031997
:100098000129643A031954280D3A03195428EF2802
:1000A8004908840083130008CC00840A0008CD00A6
:1000B8000230C6004608C907CD1F632864286D288A
:1000C8000330C6004608CA04CC09CD09CC0A031976
:1000D800CD0ACF01CF0A4F08C6004607013E84006B
:1000E8000A128A11B6230A128A11C7000A128A1143
:1000F800B6230A128A11C80048084D02031D862833
:1001080047084C02031889288A288B28952801302B
:10011800C6004608CF0705304F06031D94289528CA
:100128006F284A08033903199A289B28A6282D30D6
:10013800C6004E0884004608831380000130C600BC
:100148004608CE074F08C6004608CB00E6280A3006
:10015800BD000030BE004B08C6004607013E8400C3
:100168000A128A11B6230A128A11F3000A128A1196
:10017800B6230A128A11F4004D08F6004C08F5005F
:100188000A128A112C230A128A1174088312031383
:10019800C0007308BF000A128A1170230A128A115C
:1001A800831203133D08303EC7004708CF004F08AD
:1001B800C6004E0884004608831380000130C6003C
:1001C8004608CE07FF30C6004608CB074B0A031D7A
:1001D800EE28EF28AB280130C307FF30430784001F
:1001E8000A128A11B6230A128A11C6004608CF00DD
:1001F8004F08031D0029012924284E088400831371
:10020800800108008316031388010A128A119122BB
:100218000A128A1105308316031381006430831291
:10022800031381008B168B170B1783160313860194
:100238008312031386018316031307178717831284
:100248000313A201A301071B2A292B2938292408F3
:10025800031D2F29302938290130BA070318BB0A92
:100268000030BB07A401A40A3B08F4003A08F300D5
:10027800F430F5000130F6000A128A11DD230A1263
:100288008A11740883120313A1007308A0001F3099
:10029800D0005008C3002108C5002008C40026303B
:1002A8000A128A111C200A128A11F701F70A013072
:1002B8000A128A1139220A128A111730F500803081
:1002C800F6000A128A11E6220A128A11F701F70AC1
:1002D80002300A128A1139220A128A112630F500D0
:1002E8000030F6000A128A11E6220A128A11063034
:1002F80083120313D0005008F70002300A128A1143
:1003080039220A128A110B30F5008030F6000A12E1
:100318008A11E6220A128A1183120313071F9529EC
:100328009629B929A401B9290130D0003C0A9E298F
:100338000310D00DFF3E031D9C2950088600250898
:10034800D000D1013B085106031DAC293A085006DC
:10035800031DAF29B029B5290130D0005008BC07CA
:10036800A5010230D0005008A400871FBC29BD2970
:10037800982902302406031DC229C3292329871F6F
:10038800C629C7292329A501BA01BB01A001A101DA
:10039800A6010A128A1163240A128A1123290A1251
:1003A8008A110C2883120313BF003F080F39F40089
:1003B8007408BD003F08F039F4007408BE00081541
:1003C8003E08F40004300310F40CFF3E031DE72937
:1003D80074080A128A1127240A128A118312031335
:1003E80088153330C0008230C1000000FF3083120E
:1003F8000313C0070318C10AFF30C1074108803A38
:10040800FF0080307F02031D0B2A01304002031CCD
:100418000E2A0F2AF9298312031388113D080A129C
:100428008A1127240A128A1183120313881533307C
:10043800C2008230C3000000FF3083120313C207DA
:100448000318C30AFF30C3074308803AFF0080300F
:100458007F02031D312A01304202031C342A352A47
:100468001F2A831203138811080083120313BD0087
:100478003D03031D402A412A662A77087F3EF8007B
:100488007808C0004008F80004300310F80CFF3E5C
:10049800031D492A7808F9007908BE0040080F3979
:1004A800F8007808BF003E080A128A1149240A1287
:1004B8008A11831203133F080A128A1149240A1267
:1004C8008A11902A02303D06031D6B2A6C2A902A55
:1004D8007708BF3EF8007808C0004008F8000430EC
:1004E8000310F80CFF3E031D742A7808F9007908F8
:1004F800BE0040080F39F8007808BF003E080A120D
:100508008A1149240A128A11831203133F080A1216
:100518008A1149240A128A11080000300A128A1125
:1005280027240A128A1103300A128A1149240A124E
:100538008A112130F8007630F700F70BA12AF80B62
:10054800A12A000003300A128A1149240A128A11CA
:100558004830F8006C30F700F70BB02AF80BB02AD7
:10056800000003300A128A1149240A128A11023043
:100578000A128A1149240A128A1102300A128A11AF
:1005880049240A128A1108300A128A1149240A12C7
:100598008A1100300A128A1149240A128A110C3071
:1005A8000A128A1149240A128A1100300A128A1181
:1005B80049240A128A1106300A128A1149240A1299
:1005C8008A11080083120313C401C5010F2B4408C4
:1005D8007507F8007608F7000318F70AC41FF52A0C
:1005E800F7037708F900790883120313FF007808E6
:1005F80084000A128A11AC230A128A110A128A117B
:10060800D6210A128A11013083120313C407031872
:10061800C50A0030C50744087507F8007608F700D2
:100628000318F70AC41F192BF7037708F90079088C
:1006380083120313FF00780884000A128A11AC237E
:100648000A128A11003A031D2A2B2B2BEB2A0800C9
:10065800F801F901730874040319332B342B6B2B3D
:10066800FA01FA0A422B01300310F30DF40DFF3E94
:10067800031D382B0130F7007708FA07F41F452BC4
:10068800462B372B01300310F80DF90DFF3E031DE3
:10069800472B74087602031D532B73087502031C3D
:1006A800562B572B5E2B7308F5027408031CF603B0
:1006B800F602781401300310F40CF30CFF3E031D0E
:1006C8005F2B0130FA02031D6A2B6B2B462B79082E
:1006D800F4007808F3000800831203133D083E0471
:1006E8000319772B782BA72BC201C20A862B01305E
:1006F8000310BD0DBE0DFF3E031D7C2B0130C10054
:100708004108C207BE1F892B8A2B7B2B3E0840025B
:10071800031D902B3D083F02031C932B942B9A2B0F
:100728003D08BF023E08031CC003C002013003108D
:10073800BE0CBD0CFF3E031D9B2B0130C202031DE6
:10074800A62BA72B8A2B4008BE003F08BD00080037
:10075800FF1BB62B83137F1883170008840A03191D
:10076800FF0A080003308A000408840A820700345C
:10077800013400340A34003464340034E834033477
:10078800103427344D3469346C3469345334653447
:1007980063346F346E3464347334003444346534F1
:1007A8006C34613479343A34203400342534643478
:1007B8000034F701F801731CE22BE32BE92B7508D1
:1007C800F7070318F80A7608F80701300310F50D43
:1007D800F60DFF3E031DEA2B01300310F40CF30C59
:1007E800FF3E031DF12B73087404031DFC2BFD2B26
:1007F800DF2B7808F4007708F30008000B1D052CA0
:10080800062C112C64308312031381000B11013064
:10081800A2070318A30A0030A307FA3083120313B0
:1008280022062304031D192C1A2C202C0130F00059
:100838007008A507A201A30172088A00710E83003F
:10084800FE0E7E0E0900F300731C2B2C2C2C302C72
:10085800831203130816332C831203130812F31C94
:10086800362C372C392C88163A2C8812731D3D2CBF
:100878003E2C402C0817412C0813F31D442C452C02
:10088800472C8817482C88130800F6008312031396
:10089800081176080A128A1127240A128A1183126B
:1008A800031388151A30F500F830F400F40B5A2CAD
:1008B800F50B5A2C0000831203138811080000302E
:1008C8000A128A1149240A128A1101300A128A115D
:1008D80049240A128A11080064008001840A040667
:0808E800031900340406712C11
:02400E00723FFF
:00000001FF
